{
  "address": "0xD5497591Cfc20E5e1759e2E70789C55b7FACc1Ce",
  "abi": [
    {
      "inputs": [],
      "stateMutability": "nonpayable",
      "type": "constructor"
    },
    {
      "anonymous": false,
      "inputs": [
        {
          "indexed": false,
          "internalType": "uint256",
          "name": "amount",
          "type": "uint256"
        }
      ],
      "name": "Deposit",
      "type": "event"
    },
    {
      "anonymous": false,
      "inputs": [
        {
          "indexed": false,
          "internalType": "uint256",
          "name": "amount",
          "type": "uint256"
        }
      ],
      "name": "Withdraw",
      "type": "event"
    },
    {
      "inputs": [],
      "name": "deposit",
      "outputs": [],
      "stateMutability": "payable",
      "type": "function"
    },
    {
      "inputs": [
        {
          "internalType": "address",
          "name": "fundingAddress",
          "type": "address"
        }
      ],
      "name": "getDepositor",
      "outputs": [
        {
          "internalType": "uint256",
          "name": "amount",
          "type": "uint256"
        }
      ],
      "stateMutability": "view",
      "type": "function"
    },
    {
      "inputs": [],
      "name": "getOwner",
      "outputs": [
        {
          "internalType": "address",
          "name": "",
          "type": "address"
        }
      ],
      "stateMutability": "view",
      "type": "function"
    },
    {
      "inputs": [
        {
          "internalType": "address",
          "name": "",
          "type": "address"
        }
      ],
      "name": "s_mappedTrans",
      "outputs": [
        {
          "internalType": "uint256",
          "name": "",
          "type": "uint256"
        }
      ],
      "stateMutability": "view",
      "type": "function"
    },
    {
      "inputs": [],
      "name": "withdraw",
      "outputs": [],
      "stateMutability": "nonpayable",
      "type": "function"
    }
  ],
  "transactionHash": "0x03b9261ba7f2ff9545d910dc58bea192726093d6c1e09d7c7a2cb80149bb495e",
  "args": [],
  "numDeployments": 2,
  "solcInputHash": "eff45c62580fd932939c3a839c1f7ef4",
  "bytecode": "0x60a060405234801561001057600080fd5b503373ffffffffffffffffffffffffffffffffffffffff1660808173ffffffffffffffffffffffffffffffffffffffff168152505060805161060661006e60003960008181610117015281816101de015261031301526106066000f3fe60806040526004361061004a5760003560e01c80633ccfd60b1461004f57806351e30bdc146100665780636e2baf48146100a3578063893d20e8146100e0578063d0e30db01461010b575b600080fd5b34801561005b57600080fd5b50610064610115565b005b34801561007257600080fd5b5061008d60048036038101906100889190610416565b6102af565b60405161009a919061045c565b60405180910390f35b3480156100af57600080fd5b506100ca60048036038101906100c59190610416565b6102c7565b6040516100d7919061045c565b60405180910390f35b3480156100ec57600080fd5b506100f561030f565b6040516101029190610486565b60405180910390f35b610113610337565b005b7f000000000000000000000000000000000000000000000000000000000000000073ffffffffffffffffffffffffffffffffffffffff163373ffffffffffffffffffffffffffffffffffffffff16146101a3576040517f08c379a000000000000000000000000000000000000000000000000000000000815260040161019a906104fe565b60405180910390fd5b7f5b6b431d4476a211bb7d41c20d1aab9ae2321deee0d20be3d9fc9b1093fa6e3d476040516101d2919061045c565b60405180910390a160007f0000000000000000000000000000000000000000000000000000000000000000905060008173ffffffffffffffffffffffffffffffffffffffff16476040516102259061054f565b60006040518083038185875af1925050503d8060008114610262576040519150601f19603f3d011682016040523d82523d6000602084013e610267565b606091505b50509050806102ab576040517f08c379a00000000000000000000000000000000000000000000000000000000081526004016102a2906105b0565b60405180910390fd5b5050565b60006020528060005260406000206000915090505481565b60008060008373ffffffffffffffffffffffffffffffffffffffff1673ffffffffffffffffffffffffffffffffffffffff168152602001908152602001600020549050919050565b60007f0000000000000000000000000000000000000000000000000000000000000000905090565b346000803373ffffffffffffffffffffffffffffffffffffffff1673ffffffffffffffffffffffffffffffffffffffff168152602001908152602001600020819055507f4d6ce1e535dbade1c23defba91e23b8f791ce5edc0cc320257a2b364e4e38426346040516103a9919061045c565b60405180910390a1565b600080fd5b600073ffffffffffffffffffffffffffffffffffffffff82169050919050565b60006103e3826103b8565b9050919050565b6103f3816103d8565b81146103fe57600080fd5b50565b600081359050610410816103ea565b92915050565b60006020828403121561042c5761042b6103b3565b5b600061043a84828501610401565b91505092915050565b6000819050919050565b61045681610443565b82525050565b6000602082019050610471600083018461044d565b92915050565b610480816103d8565b82525050565b600060208201905061049b6000830184610477565b92915050565b600082825260208201905092915050565b7f4e6f74204f776e65720000000000000000000000000000000000000000000000600082015250565b60006104e86009836104a1565b91506104f3826104b2565b602082019050919050565b60006020820190508181036000830152610517816104db565b9050919050565b600081905092915050565b50565b600061053960008361051e565b915061054482610529565b600082019050919050565b600061055a8261052c565b9150819050919050565b7f53656e64696e67204661696c6564000000000000000000000000000000000000600082015250565b600061059a600e836104a1565b91506105a582610564565b602082019050919050565b600060208201905081810360008301526105c98161058d565b905091905056fea2646970667358221220c6dbf743ebfd5fc9d1d2866d7aa2a6c3a4f21096b289cf7cd9986f5affc31bdc64736f6c63430008120033",
  "devdoc": {
    "kind": "dev",
    "methods": {},
    "version": 1
  },
  "userdoc": {
    "kind": "user",
    "methods": {},
    "version": 1
  },
  "storageLayout": {
    "storage": [
      {
        "astId": 15,
        "contract": "contracts/PiggyBank.sol:PiggyBank",
        "label": "s_mappedTrans",
        "offset": 0,
        "slot": "0",
        "type": "t_mapping(t_address,t_uint256)"
      }
    ],
    "types": {
      "t_address": {
        "encoding": "inplace",
        "label": "address",
        "numberOfBytes": "20"
      },
      "t_mapping(t_address,t_uint256)": {
        "encoding": "mapping",
        "key": "t_address",
        "label": "mapping(address => uint256)",
        "numberOfBytes": "32",
        "value": "t_uint256"
      },
      "t_uint256": {
        "encoding": "inplace",
        "label": "uint256",
        "numberOfBytes": "32"
      }
    }
  }
}